:020000040000FA
:02000000842852
:040002000034003492
:080008000B1830200B10090059
:1000100083120313080083120317080083120313CB
:100020000800831203170800831203130030A00096
:100030002930A2000800831203130030A1005530BC
:10004000A3000800831203170030A0002930A2008B
:100050000800831203170030A1004D30A3000800F0
:1000600006183B2086184D2006195F20861971203E
:10007000831203130800831203132B302602031983
:1000800008002B30200203191420A60AA00A220817
:10009000840020088000A20A0800831203132B307A
:1000A0002702031908002B30210203191B20A70A7D
:1000B000A10A2308840021088000A30A08008312F3
:1000C00003172330260203190800233020020319E6
:1000D0002220A60AA00A2208840020088000A20A82
:1000E0000800831203172330270203190800233066
:1000F000210203192920A70AA10A23088400210844
:100100008000A30A080008008312031385018316E8
:1001100003178801831203138601831603130F301C
:10012000860083120313C8308B00831603130F302D
:100130009600831203132930A2005530A3008312C6
:0E01400003172930A2004D30A3000000A528AF
:02400E00FC3F75
:02401000FF3F70
:00000001FF
