:020000040000FA
:020000009D2839
:040002000034003492
:080008000B18902009002C08E0
:100010008400503084070008AA002408840050306F
:1000200084070008AB002C088400503084072B089C
:10003000800024088400503084072A0880000800CB
:100040002C08A7000310A70D270820020318270873
:10005000031CA90929186D28A9012708840050301C
:1000600084070008A6002C0884005030840700088C
:10007000A5002602031C3E286E2046282C08A4005A
:1000800024088400503084070008A800A7012C0829
:10009000A7000310A70DA70A2708200203182708A6
:1000A000031CA90929186528A901270884005030D4
:1000B00084070008A6002408840050308407000844
:1000C000A800280826020318772024082C02031D04
:1000D0006C28FF30A9006D28072008002708A4001D
:1000E00024088400503084070008A800080027086E
:1000F000A40024088400503084070008A8000800E9
:10010000A2032208AC008A20A90101302202031DAB
:10011000802808002020291808002408AC008A281C
:10012000061C9820861C9920061D9A20861D9B205F
:100130000800080008000800080083120313850166
:100140008316031788018312031386018316031392
:100150000F30860083120313C8308B000000AE28D6
:02400E00FC3F75
:02401000FF3F70
:00000001FF
