:020000040000FA
:02000000822854
:040002000034003492
:080008000B1830200B10090059
:1000100083120313080083160313080083120313CB
:100020000800831603130800831203130030A00096
:100030002930A2000800831203130030A1005530BC
:10004000A3000800831603130030A000A930A2000B
:100050000800831603130030A100CC30A300080071
:1000600083120313061A3D20861A4D20061B5D20BD
:10007000861B6F208312031308002B3026020319FE
:1000800008002B30200203191420A60AA00A220817
:10009000840020088000A20A08002B3027020319E0
:1000A00008002B30210203191B20A70AA10A2308EC
:1000B000840021088000A30A08008316031323305C
:1000C0002602031908002330200203192220A60A61
:1000D000A00A2208840020088000A20A08008316D3
:1000E00003132330270203190800233021020319C8
:1000F0002920A70AA10A2308840021088000A30A56
:100100000800080083120313850183160317880172
:1001100083120313860183160313F03086008312C3
:100120000313D8308B0083160313F0309600831628
:10013000031370308C0083120313903098008316E1
:10014000031320309800831203132930A200553086
:10015000A30083160313A930A200CC30A30083129E
:08016000031301309900B328DC
:02400E00FC3F75
:02401000FF3F70
:00000001FF
