:020000040000FA
:02000000A62830
:040002000034003492
:080008000B1844200B10090045
:10001000240899002408840000308000A40AA60364
:100020000800240899002408840000308000A40AF5
:10003000A6030800250899002508840000308000E8
:10004000A50AA703080025089900250884000030A8
:100050008000A50AA70308000030A0000800E830CF
:10006000A1000800D030A0000800B830A1000800AE
:100070002930A20008005530A3000800A930A200D2
:100080000800CC30A300080083120313061A512085
:10009000861A6520061B7920861B8F208312031386
:1000A00008002B30260203190800543022020319DD
:1000B0003820E730200203192C20A60AA00A2208C3
:1000C000840020088000A20A08002B3027020319B0
:1000D00008007F30230203193B20CF30210203198F
:1000E0002F20A70AA10A2308840021088000A30A60
:1000F0000800831603132330260203190800CB30AF
:10010000220203193E20B730200203192C20A60A30
:10011000A00A2208840020088000A20A0800831692
:1001200003132330270203190800EF3023020319B9
:1001300041209F30210203192C20A70AA10A23087D
:10014000840021088000A30A08000800831203131A
:100150008501831603178801831203138601831612
:100160000313F030860083120313C8308B0083160C
:100170000313F0309600831203132930A200553088
:10018000A3000030A6000030A7002930A4002930C9
:10019000A5000030A000E830A10083160313A930A9
:1001A000A200CC30A3000030A6000030A700293008
:1001B000A4002930A500D030A000B830A100000074
:0201C000DF2836
:02400E00FC3F75
:02401000FF3F70
:00000001FF
