:020000040000FA
:02000000D728FF
:040002000034003492
:08000800831203130B18692099
:100010000B10831203130C1A5E20090021181128FB
:1000200014282B20A10117282220A10A1728080034
:1000300022181B281E283D20A20121283420A20AB4
:10004000212808002408990024088400003080003A
:10005000A40AA6030800250899002508840000309A
:100060008000A50AA703080024089900240884003A
:1000700000308000A40AA60308002508990025087E
:10008000840000308000A50AA70308000030A0000B
:100090000800E830A1000800D030A0000800B83007
:1000A000A10008002930A20008005530A300080074
:1000B000A930A2000800CC30A3000800831203136B
:1000C00001301A020319182002301A0203190E20F7
:1000D0000800831203138618762006198A208619D1
:1000E0009E20061AB4208312031308002B30260228
:1000F000031908005430220203195220E73020026D
:1001000003194620A60AA00A2208840020088000BD
:10011000A20A08002B302702031908007F302302AF
:1001200003195520CF30210203194920A70AA10A3B
:100130002308840021088000A30A08008316031303
:100140002330260203190800CB302202031958205D
:10015000B730200203194620A60AA00A220884000C
:1001600020088000A20A0800831603132330270208
:1001700003190800EF30230203195B209F3021028E
:1001800003194620A70AA10A230884002108800039
:10019000A30A080083160313243098008312031364
:1001A00080309800831603130C1608000800831291
:1001B000031385018316031788018316031789012A
:1001C000831203138601831603131F3086008312E4
:1001D0000313C8308B0083160313FF309600831679
:1001E000031360308C00831603178715870083166E
:1001F000031300309900831603130A308316031388
:1002000018121815831203139030980083120313E9
:100210008C12831203132930A2005530A300003042
:10022000A6000030A7002930A4002930A500003026
:10023000A000E830A10083160313A930A200CC303F
:10024000A3000030A6000030A7002930A400293008
:10025000A500D030A000B830A100A201A10100008B
:020260002F2944
:02400E00FC3F75
:02401000FF3F70
:00000001FF
