:020000040000FA
:02000000BB281B
:040002000034003492
:08000800831203130B184D20B5
:100010000B10831203130C1A4A20090024089900BC
:100020002408840000308000A40AA60308002408E5
:1000300099002408840000308000A40AA603080068
:10004000250899002508840000308000A50AA70330
:100050000800250899002508840000308000A50AC2
:10006000A70308000030A0000800E830A100080045
:10007000D030A0000800B830A10008002930A2004C
:1000800008005530A3000800A930A2000800CC30B9
:10009000A3000800292020200800831203138618DB
:1000A0005A2006196E2086198220061A982083127B
:1000B000031308002B3026020319080054302202D3
:1000C00003193E20E730200203193220A60AA00AB5
:1000D0002208840020088000A20A08002B30270292
:1000E000031908007F30230203194120CF30210279
:1000F00003193520A70AA10A2308840021088000DB
:10010000A30A0800831603132330260203190800EC
:10011000CB30220203194420B730200203193220C9
:10012000A60AA00A2208840020088000A20A08006B
:10013000831603132330270203190800EF3023022C
:10014000031947209F30210203193220A70AA10A70
:100150002308840021088000A30A080083160313E3
:100160002430980083120313803098008316031301
:100170000C16080008008312031385018316031769
:100180008801831203138601831603131F30860030
:1001900083120313C8308B0083160313FF309600BD
:1001A0008316031360308C0083160313181218157E
:1001B0008312031390309800831603178715870066
:1001C000831203132930A2005530A3000030A6008B
:1001D0000030A7002930A4002930A5000030A0007D
:1001E000E830A10083160313A930A200CC30A3008D
:1001F0000030A6000030A7002930A4002930A50057
:10020000D030A000B830A100000054309A0004297A
:02400E00FC3F75
:02401000FF3F70
:00000001FF
