:020000040000FA
:020000004E2888
:040002000034003492
:080008000B181C200B1009006D
:100010000030A0002A30A40008000030A2005A30AE
:10002000A60008000030A1006630A50008000030DE
:10003000A3008430A70008000618252086182F206A
:10004000061939208619432008001E3020020319A2
:100050000820A00A240884002008800008000C3032
:10006000220203190D20A20A26088400220880001B
:1000700008001E30210203191220A10A250884005D
:100080002108800008000C30230203191720A30A5E
:100090002708840023088000080008008312031347
:1000A00085018316031788018312031386018316C3
:1000B00003130F30860083120313C8308B0083169E
:1000C00003130F309600831203132A30A4005A3012
:0E00D000A5006630A6008430A70000006D2851
:02400E00FC3F75
:02401000FF3F70
:00000001FF
