:040000008A11112828
:10000800FE00030E83120313D9000408DA000A085D
:10001800DB007F08DC008A11F2288A1113288A1174
:10002800B9228A11DE008A11BA228A11DF008A11E8
:10003800BB228A11E0008A11BC228A11E1008317D1
:100048002030840048308A11A4228A118313A030FA
:100058008400F0308A11A4228A112030840056309E
:100068008A11A4228A11783084007E308A11A42251
:1000780083018A1165298A1198228A1143308A11CD
:10008800AC228A1157308A11AC228A114D308A115C
:10009800AC228A114F308A11AC228A1144308A115D
:1000A800AC228A1145308A11AC228A113D308A115E
:1000B800AC228A1131308A11AC228A110D308A1192
:1000C800AC228A110A308A11AC228A118A1145227F
:1000D8008A118A1198228A1143308A11AC228A1116
:1000E80057308A11AC228A114A308A11AC228A11FF
:1000F80041308A11AC228A1150308A11AC228A11FF
:100108005F308A11AC228A1143308A11AC228A11DD
:1001180055308A11AC228A1152308A11AC228A11C8
:100128003D308A11AC228A1122308A11AC228A1100
:1001380064308A11AC228A116C308A11AC228A117F
:1001480069308A11AC228A116E308A11AC228A1168
:100158006B308A11AC228A1122308A11AC228A11A2
:100168002C308A11AC228A1122308A11AC228A11D1
:1001780022308A11AC228A110D308A11AC228A11E0
:100188000A308A11AC228A118A1145228A11433019
:100198008A11AC228A1150308A11AC228A114D3052
:1001A8008A11AC228A1155308A11AC228A11583032
:1001B8008A11AC228A113D308A11AC228A11313061
:1001C8008A11AC228A110D308A11AC228A110A30A8
:1001D8008A11AC228A118A11452208000B1C582961
:1001E800061A37298A11A9218A11831203130514C3
:1001F8000630D8001330D700B130D600D60B02290C
:10020800D70B0229D80B02290929831203130510D9
:100218000A307B06031D212985140630D8001330C7
:10022800D700B130D600D60B1729D70B1729D80B12
:1002380017291E2983120313851013307B06031D0B
:10024800572905150630D8001330D700B130D6002D
:10025800D60B2C29D70B2C29D80B2C293329831200
:10026800031305115729861950298A117F228A11EB
:100278008312031305160630D8001330D700B130A7
:10028800D600D60B4529D70B4529D80B45294C292B
:100298008312031305125729061956298A11EB21CF
:1002A8008A11572906080B10831203135C08FF00F4
:1002B8005B088A005A088400590E8300FE0E7E0EE1
:1002C8000900831603138113831603178801831209
:1002D8000313850183160313850183120313870112
:1002E80083160313871707131E308600FF30831207
:1002F80003138600831603178901C8308B007030FA
:10030800831603138F008A1171228A118A113F20E4
:100318008A11FF3083160313960060308C009030EA
:10032800831203139800831603131812FA01831219
:100338000313D101FB01FC01D501FD01F801D00136
:10034800F901D201D301D401A82914307B0603197D
:10035800080013307A060319FA01E73083120313F1
:100368004A06033003194B06031DBC29CA01CB01F9
:100378007B08013EF1007108FB004A08013ECA00F3
:100388004B080318013E003ECB007A08F1007107C4
:10039800203E84004A0883138000840A4B088000AA
:1003A8007A08013EF1007108FA0041308A11612291
:1003B8008A110630F3001330F200B130F100F10B6E
:1003C800E329F20BE329F30BE329EA2908001430A7
:1003D800790603190800133078060319F801B730B5
:1003E8008312031348060B3003194906031D002A1C
:1003F800CF30C8000730C9007908013EF7007708F8
:10040800F9004808013EC80049080318013E003EAB
:10041800C9007808F7007707A03E84004A088313CC
:100428008000840A4B0880007808013EF7007708AE
:10043800F8008A1120220800831203136108F400CF
:100448006008F3005F08F2005E08F100F501F601AC
:100458007608803AFF0080307F02031D352A043079
:100468007502031808007508713E840000088A1197
:1004780061228A110130F5070318F60A0030F607E1
:100488002C2A8A118C228A114F30831203131A06E0
:10049800031D452A8A118C228A114B3083120313BB
:1004A8001A06031D452A8A118C228A110D308312DF
:1004B80003131A0603190800452AF00083120313D0
:1004C8001412831603131410700883120313930075
:1004D80083160313141C08006C2A0C3083160313AC
:1004E8009900831203138C12981718168316031396
:1004F8001812981608007B08FF3EF0007008FB00F1
:10050800831203135108FF3EF0007008D100080061
:1005180083120313981C932A8A11B4228A11831216
:1005280003138C1A08008C2A41308A11AC228A11D4
:1005380054308A11AC228A112B308A11AC2208005F
:1005480064008001840A0406031900340406A52AFD
:1005580083120313DD000C1EAF2A5D089900080002
:1005680083120313181218160800013400340034DB
:0205780001344C
:04400E00D4E0FFFFFC
:00000001FF
