:040000008A11112828
:10000800FE00030E83120313DA000408DB000A085B
:10001800DC007F08DD008A110A2A8A1113288A1158
:10002800DD238A11E0008A11DE238A11E1008A119A
:10003800DF238A11E2008A11E0238A11E300831783
:100048002030840048308A11C8238A118313A030D5
:100058008400F0308A11C8238A1120308400573078
:100068008A11C8238A11783084007E308A11C82307
:1000780083018A117D2A8A11BC238A1143308A118F
:10008800D0238A1157308A11D0238A114D308A1112
:10009800D0238A114F308A11D0238A1144308A1113
:1000A800D0238A1145308A11D0238A113D308A1114
:1000B800D0238A1131308A11D0238A110D308A1148
:1000C800D0238A110A308A11D0238A118A11692310
:1000D8008A118A11BC238A1143308A11D0238A11CC
:1000E80057308A11D0238A114A308A11D0238A11B5
:1000F80041308A11D0238A1150308A11D0238A11B5
:100108005F308A11D0238A1143308A11D0238A1193
:1001180055308A11D0238A1152308A11D0238A117E
:100128003D308A11D0238A1122308A11D0238A11B6
:1001380064308A11D0238A116C308A11D0238A1135
:1001480069308A11D0238A116E308A11D0238A111E
:100158006B308A11D0238A1122308A11D0238A1158
:100168002C308A11D0238A1122308A11D0238A1187
:1001780022308A11D0238A110D308A11D0238A1196
:100188000A308A11D0238A118A1169238A118A11A7
:10019800BC238A1143308A11D0238A1150308A1126
:1001A800D0238A114D308A11D0238A1155308A11F3
:1001B800D0238A1158308A11D0238A113D308A11F0
:1001C800D0238A1131308A11D0238A110D308A1137
:1001D800D0238A110A308A11D0238A118A116923FF
:1001E8008A118A11BC238A1143308A11D0238A11BB
:1001F80049308A11D0238A1150308A11D0238A11AC
:1002080053308A11D0238A1145308A11D0238A119C
:1002180052308A11D0238A1156308A11D0238A117C
:1002280045308A11D0238A1152308A11D0238A117D
:100238003D308A11D0238A1131308A11D0238A1196
:100248002C308A11D0238A1131308A11D0238A1197
:1002580030308A11D0238A1130308A11D0238A1184
:1002680030308A11D0238A110D308A11D0238A1197
:100278000A308A11D0238A118A11692308008A1149
:10028800B0238A113030831203131A06031D432941
:100298008A11B0238A112C30831203131A06031D06
:1002A80043298A11B0238A114330831203131A0693
:1002B800031D43298A11B0238A114F308312031377
:1002C8001A06031D43298A11B0238A114E3083125E
:1002D80003131A06031D43298A11B0238A114E30CD
:1002E800831203131A06031D43298A11B0238A11A6
:1002F8004530831203131A06031D43298A11B023BC
:100308008A114330831203131A06031D43298A11E5
:10031800B0238A115430831203131A06031D43298C
:100328008A11B0238A110D30831203131A06031998
:1003380043298A11B0238A110A30831203131A063B
:10034800031943298A11B0238A110D30831203132C
:100358001A06031943298A11B0238A110A30831215
:1003680003131A06031943298A11B0238A112B3063
:10037800831203131A06031943298A11B0238A1119
:100388004930831203131A06031943298A11B0232B
:100398008A115030831203131A06031943298A114C
:1003A800B0238A114430831203131A060319432910
:1003B8008A11B0238A112C30831203131A060319E9
:1003C80043298A11B0238A113030831203131A0685
:1003D800031943298A11B0238A112C30831203137D
:1003E8001A06031943298A11B0238A11313083125E
:1003F80003131A06031943298A11B0238A113A30C4
:10040800831203131A060319080043290B1C702AC8
:10041800061A4F2A8A11CD228A1183120313051452
:100428000630D9001330D800B130D700D70B1A2ABC
:10043800D80B1A2AD90B1A2A212A8312031305105A
:100448000A307B06031D392A85140630D90013307B
:10045800D800B130D700D70B2F2AD80B2F2AD90BA9
:100468002F2A362A83120313851013307B06031DA7
:100478006F2A05150630D9001330D800B130D700DF
:10048800D70B442AD80B442AD90B442A4B2A831267
:10049800031305116F2A8619682A8A11A3238A1162
:1004A8008312031305160630D9001330D800B13073
:1004B800D700D70B5D2AD80B5D2AD90B5D2A642A91
:1004C8008312031305126F2A06196E2A8A110F2345
:1004D8008A116F2A06080B10831203135D08FF00A8
:1004E8005C088A005B0884005A0E8300FE0E7E0EAC
:1004F80009008316031381138316031788018312D7
:1005080003138501831603138501831203138701DF
:1005180083160313871707131E308600FF308312D4
:1005280003138600831603178901C8308B00FF3038
:1005380083160313960060308C00903083120313E7
:100548009800831603131812FA0183120313D201B9
:10055800FB01FC01D601FD01F801D001F901D3012D
:10056800D401D5017030831603138F008A119523A7
:100578008A118A113F208A118A1143218A118A110E
:10058800B0238A11831203131A08DF005F08D10011
:10059800C02A14307B060319080013307A060319A1
:1005A800FA01E730831203134A06033003194B0696
:1005B800031DE02ACA01CB017B08013EF100710846
:1005C800FB004A08013ECA004B080318013E003EE2
:1005D800CB007A08F1007107203E84004A08831393
:1005E8008000840A4B0880007A08013EF1007108F7
:1005F800FA0041308A1185238A110630F30013303E
:10060800F200B130F100F10B072BF20B072BF30BC3
:10061800072B0E2B08001430790603190800133035
:1006280078060319F801B7308312031348060B3014
:1006380003194906031D242BCF30C8000730C90011
:100648007908013EF7007708F9004808013EC8001C
:1006580049080318013E003EC9007808F7007707EB
:10066800A03E84004A0883138000840A4B08800057
:100678007808013EF7007708F8008A11442308003B
:10068800831203136308F4006208F3006108F200A0
:100698006008F100F501F6017608803AFF00803025
:1006A8007F02031D592B04307502031808007508D2
:1006B800713E840000088A1185238A110130F507EC
:1006C8000318F60A0030F607502B8A11B0238A1156
:1006D8004F30831203131A06031D692B8A11B023A6
:1006E8008A114B30831203131A06031D692B8A11D2
:1006F800B0238A110D30831203131A060319080058
:10070800692BF000831203131412831603131410B9
:10071800700883120313930083160313141C080034
:10072800902B0C30831603139900831203138C1239
:1007380098171816831603131812981608007B08C2
:10074800FF3EF0007008FB00831203135208FF3EBF
:10075800F0007008D200080083120313981CB72B0E
:100768008A11D8238A11831203138C1A0800B02B1C
:1007780041308A11D0238A1154308A11D0238A112A
:100788002B308A11D023080064008001840A0406F3
:10079800031900340406C92B83120313DE000C1E50
:1007A800D32B5E0899000800831203131812181639
:0A07B800080001340034003401345D
:04400E00D4E0FFFFFC
:00000001FF
