:040000008A11112828
:10000800FE00030E83120313D9000408DA000A085D
:10001800DB007F08DC008A113F288A1113288A1127
:10002800D1218A11E0008A11D2218A11E1008A11B6
:10003800D3218A11E2008A11D4218A11E30083179F
:100048002030840048308A11C2218A118313A030DD
:100058008400F0308A11C2218A1120308400563081
:100068008A11C2218A11783084007E308A11C22117
:1000780083018A11B2280B1CA528061A84288A1124
:10008800FF208A118312031305140330D8008A3025
:10009800D7005630D600D60B4F28D70B4F28D80B91
:1000A8004F2856288312031305100A307B06031DB8
:1000B8006E2885140330D8008A30D7005630D60011
:1000C800D60B6428D70B6428D80B64286B288312B6
:1000D8000313851013307B06031DA4280515033070
:1000E800D8008A30D7005630D600D60B7928D70BDF
:1000F8007928D80B79288028831203130511A4289E
:1001080086199D288A11AB218A11831203130516BB
:100118000330D8008A30D7005630D600D60B922844
:10012800D70B9228D80B922899288312031305120B
:10013800A4280619A3288A1141218A11A42806088F
:100148000B10831203135C08FF005B088A005A082F
:100158008400590E8300FE0E7E0E090083160313D9
:1001680081138316031788018312031385018316ED
:10017800031385018312031387018316031387175B
:1001880007131E308600FF30831203138600831680
:1001980003178901C8308B00FF30831603139600BC
:1001A80060308C0090308312031398008316031379
:1001B8001812FA0183120313D101FB01FC01D501C6
:1001C800FD01F801D001F901D201D301D4010230B7
:1001D800DF004530DE00A930DD00DD0BF128DE0B45
:1001E800F128DF0BF128F8288A11CA218A118A110F
:1001F800B8218A11FE2814307B0603190800133031
:100208007A060319FA01E730831203134A0603300A
:1002180003194B06031D1229CA01CB017B08013EB5
:10022800F1007108FB004A08013ECA004B08031898
:10023800013E003ECB007A08F1007107203E8400A1
:100248004A0883138000840A4B0880007A08013E1C
:10025800F1007108FA0041308A119B218A1103309C
:10026800F3008A30F2005630F100F10B3929F20B15
:100278003929F30B39294029080014307906031964
:100288000800133078060319F801B73083120313F6
:1002980048060B3003194906031D5629CF30C800FC
:1002A8000730C9007908013EF7007708F9004808C7
:1002B800013EC80049080318013E003EC9007808FD
:1002C800F7007707A03E84004A0883138000840A59
:1002D8004B0880007808013EF7007708F8008A117B
:1002E80076210800831203136308F4006208F30000
:1002F8006108F2006008F100F501F6017608803A1D
:10030800FF0080307F02031D8B290430750203181B
:1003180008007508713E840000088A119B218A1123
:100328000130F5070318F60A0030F6078229F000B5
:100338008312031314128316031314107008831204
:100348000313930083160313141C0800A6297B08C3
:10035800FF3EF0007008FB00831203135108FF3EB4
:10036800F0007008D1000800803083160313940051
:1003780021308312031394008C110800640080015B
:10038800840A0406031900340406C32983160313D8
:1003980087110716871285120800013400340034CB
:0203A80001341E
:04400E00D4E0FFFFFC
:00000001FF
