:040000008A11112828
:10000800FE00030E83120313D6000408D7000A0863
:10001800D8007F08D9008A11032A8A1113288A1167
:100028000F248A11DC008A1110248A11DD008A113C
:1000380011248A11DE008A1112248A11DF00831329
:10004800A0308400C8308A11FA238A112030840035
:1000580053308A11FA238A11783084007E308A114D
:10006800FA2383018A117D2A8A11EE238A114330EB
:100078008A1102248A1157308A1102248A114D30BC
:100088008A1102248A114F308A1102248A114430BD
:100098008A1102248A1145308A1102248A113D30BE
:1000A8008A1102248A1131308A1102248A110D30F2
:1000B8008A1102248A110A308A1102248A118A11AB
:1000C8009B238A118A11EE238A1143308A11022454
:1000D8008A1157308A1102248A114A308A1102245F
:1000E8008A1141308A1102248A1150308A1102245F
:1000F8008A115F308A1102248A1143308A1102243E
:100108008A1155308A1102248A1152308A11022428
:100118008A113D308A1102248A1122308A11022460
:100128008A1164308A1102248A116C308A110224DF
:100138008A1169308A1102248A116E308A110224C8
:100148008A116B308A1102248A1122308A11022402
:100158008A112C308A1102248A1122308A11022431
:100168008A1122308A1102248A110D308A11022440
:100178008A110A308A1102248A118A119B238A1152
:100188008A11EE238A1143308A1102248A115030D1
:100198008A1102248A114D308A1102248A1155309D
:1001A8008A1102248A1158308A1102248A113D309A
:1001B8008A1102248A1131308A1102248A110D30E1
:1001C8008A1102248A110A308A1102248A118A119A
:1001D8009B238A118A11EE238A1143308A11022443
:1001E8008A1149308A1102248A1150308A11022456
:1001F8008A1153308A1102248A1145308A11022447
:100208008A1152308A1102248A1156308A11022426
:100218008A1145308A1102248A1152308A11022427
:100228008A113D308A1102248A1131308A11022440
:100238008A112C308A1102248A1131308A11022441
:100248008A1130308A1102248A1130308A1102242E
:100258008A1130308A1102248A110D308A11022441
:100268008A110A308A1102248A118A119B230800F4
:100278008A11E2238A113030831203131A06031DF0
:100288003C298A11E2238A112C30831203131A069F
:10029800031D3C298A11E2238A1143308312031378
:1002A8001A06031D3C298A11E2238A114F30831252
:1002B80003131A06031D3C298A11E2238A114E30C2
:1002C800831203131A06031D3C298A11E2238A119B
:1002D8004E30831203131A06031D3C298A11E223A8
:1002E8008A114530831203131A06031D3C298A110B
:1002F800E2238A114330831203131A06031D3C2993
:100308008A11E2238A115430831203131A06031D3B
:100318003C298A11E2238A110D30831203131A062D
:1003280003193C298A11E2238A110A308312031324
:100338001A0603193C298A11E2238A110D30831207
:1003480003131A0603193C298A11E2238A110A3079
:10035800831203131A0603193C298A11E2238A110E
:100368002B30831203131A0603193C298A11E2233E
:100378008A114930831203131A0603193C298A117A
:10038800E2238A115030831203131A0603193C29F9
:100398008A11E2238A114430831203131A060319BF
:1003A8003C298A11E2238A112C30831203131A067E
:1003B80003193C298A11E2238A113030831203136E
:1003C8001A0603193C298A11E2238A112C30831258
:1003D80003131A0603193C298A11E2238A113130C2
:1003E800831203131A0603193C298A11E2238A117E
:1003F8003A30831203131A06031908003C290B1C10
:10040800702A061A482A8A11CD228A1183120313E8
:1004180005140630D5001330D400B130D300D30B07
:10042800132AD40B132AD50B132A1A2A831203135F
:1004380005100A307B06031D322A85140630D500C4
:100448001330D400B130D300D30B282AD40B282A78
:10045800D50B282A2F2A83120313851013307B0605
:10046800031D6F2A05150630D5001330D400B130AE
:10047800D300D30B3D2AD40B3D2AD50B3D2A442A61
:100488008312031305116F2A8619642A8A11D5234A
:100498008A118A112A238A1183120313051606303A
:1004A800D5001330D400B130D300D30B592AD40B64
:1004B800592AD50B592A602A8312031305126F2A69
:1004C80006196A2A8A1102238A116F2A86186F2A46
:1004D8008A1150238A110B10831203135908FF0045
:1004E80058088A0057088400560E8300FE0E7E0EB8
:1004F80009008316031381138316031788018312D7
:1005080003138501831603138501831203138701DF
:1005180083160313871707131E308600FF308312D4
:1005280003138600831603178901C8308B00FF3038
:1005380083160313960060308C00903083120313E7
:100548009800831603131812FA0183120313CC01BF
:10055800FB01D001D101D201C901CA01CB01CD01F2
:10056800CE01CF017030831603138F008A11C72381
:100578008A118A1138208A118A113C218A118A111C
:10058800E2238A11831203131A08DB005B08F800C0
:10059800C02A14307B060319080013307A060319A1
:1005A800FA01FE3079060319F9017B08013EF100D2
:1005B8007108FB007908013EF1007108F90079081B
:1005C800F1007A08203E84007108831380007A08BD
:1005D800013EF1007108FA0041308A11B7238A11EF
:1005E8000630F3001330F200B130F100F10BFA2AB3
:1005F800F20BFA2AF30BFA2A012B080014308312A3
:1006080003134B0603190800133049060319C901DF
:10061800FE3048060319C8014B08013EF700770869
:10062800CB004808013EF7007708C8007908F700B2
:100638004908A03E84007708831380004908013EDA
:10064800F7007708C9008A1176230800143083124E
:100658000313520603190800133050060319D0017A
:10066800FE307D060319FD015208013EF0007008B6
:10067800D2007D08013EF0007008FD007D08F00002
:100688005008343E84007008831380005008013EEF
:10069800F0007008D00008001430831203134F06CE
:1006A8000319080013304D060319CD01FE307C06EE
:1006B8000319FC014F08013EF0007008CF007C08C8
:1006C800013EF0007008FC007C08F0004D08B43EC4
:1006D80084007008831380004D08013EF000700804
:1006E800CD000800831203135F08F4005E08F300CE
:1006F8005D08F2005C08F100F501F6017608803A21
:10070800FF0080307F02031D8B2B04307502031815
:1007180008007508713E840000088A11B7238A1101
:100728000130F5070318F60A0030F607822B8A1104
:10073800E2238A114F30831203131A06031D9B2BE1
:100748008A11E2238A114B30831203131A06031D00
:100758009B2B8A11E2238A110D30831203131A0688
:10076800031908009B2BF00083120313141283163D
:1007780003131410700883120313930083160313D2
:10078800141C0800C22B0C30831603139900831223
:1007980003138C1298171816831603131812981639
:1007A80008007B08FF3EF0007008FB00831203136B
:1007B8004C08FF3EF0007008CC00080083120313B9
:1007C800981CE92B8A110A248A11831203138C1AA4
:1007D8000800E22B41308A1102248A1154308A1110
:1007E80002248A112B308A11022408006400800137
:1007F800840A0406031900340406FB2B831203132E
:10080800DA000C1E052C5A089900080083120313FD
:0E0818001812181608000134003400340134A0
:04400E00D4E0FFFFFC
:00000001FF
